{
    "_format": "hh-sol-artifact-1",
    "contractName": "MyEpicNFT",
    "sourceName": "contracts/MyEpicNFT.sol",
    "abi": [
        {
            "inputs": [],
            "stateMutability": "nonpayable",
            "type": "constructor"
        },
        {
            "anonymous": false,
            "inputs": [
                {
                    "indexed": true,
                    "internalType": "address",
                    "name": "owner",
                    "type": "address"
                },
                {
                    "indexed": true,
                    "internalType": "address",
                    "name": "approved",
                    "type": "address"
                },
                {
                    "indexed": true,
                    "internalType": "uint256",
                    "name": "tokenId",
                    "type": "uint256"
                }
            ],
            "name": "Approval",
            "type": "event"
        },
        {
            "anonymous": false,
            "inputs": [
                {
                    "indexed": true,
                    "internalType": "address",
                    "name": "owner",
                    "type": "address"
                },
                {
                    "indexed": true,
                    "internalType": "address",
                    "name": "operator",
                    "type": "address"
                },
                {
                    "indexed": false,
                    "internalType": "bool",
                    "name": "approved",
                    "type": "bool"
                }
            ],
            "name": "ApprovalForAll",
            "type": "event"
        },
        {
            "anonymous": false,
            "inputs": [
                {
                    "indexed": false,
                    "internalType": "address",
                    "name": "sender",
                    "type": "address"
                },
                {
                    "indexed": false,
                    "internalType": "uint256",
                    "name": "tokenId",
                    "type": "uint256"
                }
            ],
            "name": "NewEpicNFTMinted",
            "type": "event"
        },
        {
            "anonymous": false,
            "inputs": [
                {
                    "indexed": true,
                    "internalType": "address",
                    "name": "from",
                    "type": "address"
                },
                {
                    "indexed": true,
                    "internalType": "address",
                    "name": "to",
                    "type": "address"
                },
                {
                    "indexed": true,
                    "internalType": "uint256",
                    "name": "tokenId",
                    "type": "uint256"
                }
            ],
            "name": "Transfer",
            "type": "event"
        },
        {
            "inputs": [
                {
                    "internalType": "address",
                    "name": "to",
                    "type": "address"
                },
                {
                    "internalType": "uint256",
                    "name": "tokenId",
                    "type": "uint256"
                }
            ],
            "name": "approve",
            "outputs": [],
            "stateMutability": "nonpayable",
            "type": "function"
        },
        {
            "inputs": [
                {
                    "internalType": "address",
                    "name": "owner",
                    "type": "address"
                }
            ],
            "name": "balanceOf",
            "outputs": [
                {
                    "internalType": "uint256",
                    "name": "",
                    "type": "uint256"
                }
            ],
            "stateMutability": "view",
            "type": "function"
        },
        {
            "inputs": [
                {
                    "internalType": "uint256",
                    "name": "tokenId",
                    "type": "uint256"
                }
            ],
            "name": "getApproved",
            "outputs": [
                {
                    "internalType": "address",
                    "name": "",
                    "type": "address"
                }
            ],
            "stateMutability": "view",
            "type": "function"
        },
        {
            "inputs": [],
            "name": "getTotalSupply",
            "outputs": [
                {
                    "internalType": "uint256",
                    "name": "",
                    "type": "uint256"
                }
            ],
            "stateMutability": "view",
            "type": "function"
        },
        {
            "inputs": [
                {
                    "internalType": "address",
                    "name": "owner",
                    "type": "address"
                },
                {
                    "internalType": "address",
                    "name": "operator",
                    "type": "address"
                }
            ],
            "name": "isApprovedForAll",
            "outputs": [
                {
                    "internalType": "bool",
                    "name": "",
                    "type": "bool"
                }
            ],
            "stateMutability": "view",
            "type": "function"
        },
        {
            "inputs": [],
            "name": "makeAnEpicNFT",
            "outputs": [],
            "stateMutability": "nonpayable",
            "type": "function"
        },
        {
            "inputs": [],
            "name": "name",
            "outputs": [
                {
                    "internalType": "string",
                    "name": "",
                    "type": "string"
                }
            ],
            "stateMutability": "view",
            "type": "function"
        },
        {
            "inputs": [
                {
                    "internalType": "uint256",
                    "name": "tokenId",
                    "type": "uint256"
                }
            ],
            "name": "ownerOf",
            "outputs": [
                {
                    "internalType": "address",
                    "name": "",
                    "type": "address"
                }
            ],
            "stateMutability": "view",
            "type": "function"
        },
        {
            "inputs": [
                {
                    "internalType": "uint256",
                    "name": "tokenId",
                    "type": "uint256"
                }
            ],
            "name": "pickRandomFirstWord",
            "outputs": [
                {
                    "internalType": "string",
                    "name": "",
                    "type": "string"
                }
            ],
            "stateMutability": "view",
            "type": "function"
        },
        {
            "inputs": [
                {
                    "internalType": "uint256",
                    "name": "tokenId",
                    "type": "uint256"
                }
            ],
            "name": "pickRandomSecondWord",
            "outputs": [
                {
                    "internalType": "string",
                    "name": "",
                    "type": "string"
                }
            ],
            "stateMutability": "view",
            "type": "function"
        },
        {
            "inputs": [
                {
                    "internalType": "uint256",
                    "name": "tokenId",
                    "type": "uint256"
                }
            ],
            "name": "pickRandomThirdWord",
            "outputs": [
                {
                    "internalType": "string",
                    "name": "",
                    "type": "string"
                }
            ],
            "stateMutability": "view",
            "type": "function"
        },
        {
            "inputs": [
                {
                    "internalType": "address",
                    "name": "from",
                    "type": "address"
                },
                {
                    "internalType": "address",
                    "name": "to",
                    "type": "address"
                },
                {
                    "internalType": "uint256",
                    "name": "tokenId",
                    "type": "uint256"
                }
            ],
            "name": "safeTransferFrom",
            "outputs": [],
            "stateMutability": "nonpayable",
            "type": "function"
        },
        {
            "inputs": [
                {
                    "internalType": "address",
                    "name": "from",
                    "type": "address"
                },
                {
                    "internalType": "address",
                    "name": "to",
                    "type": "address"
                },
                {
                    "internalType": "uint256",
                    "name": "tokenId",
                    "type": "uint256"
                },
                {
                    "internalType": "bytes",
                    "name": "data",
                    "type": "bytes"
                }
            ],
            "name": "safeTransferFrom",
            "outputs": [],
            "stateMutability": "nonpayable",
            "type": "function"
        },
        {
            "inputs": [
                {
                    "internalType": "address",
                    "name": "operator",
                    "type": "address"
                },
                {
                    "internalType": "bool",
                    "name": "approved",
                    "type": "bool"
                }
            ],
            "name": "setApprovalForAll",
            "outputs": [],
            "stateMutability": "nonpayable",
            "type": "function"
        },
        {
            "inputs": [
                {
                    "internalType": "bytes4",
                    "name": "interfaceId",
                    "type": "bytes4"
                }
            ],
            "name": "supportsInterface",
            "outputs": [
                {
                    "internalType": "bool",
                    "name": "",
                    "type": "bool"
                }
            ],
            "stateMutability": "view",
            "type": "function"
        },
        {
            "inputs": [],
            "name": "symbol",
            "outputs": [
                {
                    "internalType": "string",
                    "name": "",
                    "type": "string"
                }
            ],
            "stateMutability": "view",
            "type": "function"
        },
        {
            "inputs": [
                {
                    "internalType": "uint256",
                    "name": "tokenId",
                    "type": "uint256"
                }
            ],
            "name": "tokenURI",
            "outputs": [
                {
                    "internalType": "string",
                    "name": "",
                    "type": "string"
                }
            ],
            "stateMutability": "view",
            "type": "function"
        },
        {
            "inputs": [
                {
                    "internalType": "address",
                    "name": "from",
                    "type": "address"
                },
                {
                    "internalType": "address",
                    "name": "to",
                    "type": "address"
                },
                {
                    "internalType": "uint256",
                    "name": "tokenId",
                    "type": "uint256"
                }
            ],
            "name": "transferFrom",
            "outputs": [],
            "stateMutability": "nonpayable",
            "type": "function"
        }
    ],
    "bytecode": "0x608060405260405180610160016040528061012f81526020016200475561012f91396008908162000031919062000b59565b506040518060e001604052806040518060400160405280600581526020017f4372617a7900000000000000000000000000000000000000000000000000000081525081526020016040518060400160405280600681526020017f537475706964000000000000000000000000000000000000000000000000000081525081526020016040518060400160405280600681526020017f4c6f76656c79000000000000000000000000000000000000000000000000000081525081526020016040518060400160405280600481526020017f57696c640000000000000000000000000000000000000000000000000000000081525081526020016040518060400160405280600681526020017f53706f6f6b79000000000000000000000000000000000000000000000000000081525081526020016040518060400160405280600881526020017f4d616a657374696300000000000000000000000000000000000000000000000081525081526020016040518060400160405280600681526020017f536e65616b7900000000000000000000000000000000000000000000000000008152508152506009906007620001ea92919062000792565b506040518061010001604052806040518060400160405280600581526020017f477261737300000000000000000000000000000000000000000000000000000081525081526020016040518060400160405280600681526020017f506f69736f6e000000000000000000000000000000000000000000000000000081525081526020016040518060400160405280600481526020017f4461726b0000000000000000000000000000000000000000000000000000000081525081526020016040518060400160405280600581526020017f576174657200000000000000000000000000000000000000000000000000000081525081526020016040518060400160405280600381526020017f496365000000000000000000000000000000000000000000000000000000000081525081526020016040518060400160405280600481526020017f466972650000000000000000000000000000000000000000000000000000000081525081526020016040518060400160405280600481526020017f526f636b0000000000000000000000000000000000000000000000000000000081525081526020016040518060400160405280600681526020017f447261676f6e0000000000000000000000000000000000000000000000000000815250815250600a906008620003df929190620007f2565b506040518061010001604052806040518060400160405280600581526020017f44656d6f6e00000000000000000000000000000000000000000000000000000081525081526020016040518060400160405280600681526020017f536c61796572000000000000000000000000000000000000000000000000000081525081526020016040518060400160405280600581526020017f47686f737400000000000000000000000000000000000000000000000000000081525081526020016040518060400160405280600681526020017f42616e646974000000000000000000000000000000000000000000000000000081525081526020016040518060400160405280600881526020017f536f72636572657200000000000000000000000000000000000000000000000081525081526020016040518060400160405280600681526020017f57697a617264000000000000000000000000000000000000000000000000000081525081526020016040518060400160405280600781526020017f57617272696f720000000000000000000000000000000000000000000000000081525081526020016040518060400160405280600681526020017f5368616d616e0000000000000000000000000000000000000000000000000000815250815250600b906008620005d4929190620007f2565b50348015620005e257600080fd5b506040518060400160405280600781526020017f526963654e4654000000000000000000000000000000000000000000000000008152506040518060400160405280600481526020017f5249434500000000000000000000000000000000000000000000000000000000815250816000908162000660919062000b59565b50806001908162000672919062000b59565b505050620006c06040518060400160405280601981526020017f5468616e6b7320666f72206d696e74696e672c206672656e2100000000000000815250620006c660201b62000ff11760201c565b62000cf3565b6200076681604051602401620006dd919062000ccf565b6040516020818303038152906040527f41304fac000000000000000000000000000000000000000000000000000000007bffffffffffffffffffffffffffffffffffffffffffffffffffffffff19166020820180517bffffffffffffffffffffffffffffffffffffffffffffffffffffffff83818316178352505050506200076960201b60201c565b50565b60008151905060006a636f6e736f6c652e6c6f679050602083016000808483855afa5050505050565b828054828255906000526020600020908101928215620007df579160200282015b82811115620007de578251829081620007cd919062000b59565b5091602001919060010190620007b3565b5b509050620007ee919062000852565b5090565b8280548282559060005260206000209081019282156200083f579160200282015b828111156200083e5782518290816200082d919062000b59565b509160200191906001019062000813565b5b5090506200084e919062000852565b5090565b5b808211156200087657600081816200086c91906200087a565b5060010162000853565b5090565b508054620008889062000948565b6000825580601f106200089c5750620008bd565b601f016020900490600052602060002090810190620008bc9190620008c0565b5b50565b5b80821115620008db576000816000905550600101620008c1565b5090565b600081519050919050565b7f4e487b7100000000000000000000000000000000000000000000000000000000600052604160045260246000fd5b7f4e487b7100000000000000000000000000000000000000000000000000000000600052602260045260246000fd5b600060028204905060018216806200096157607f821691505b60208210810362000977576200097662000919565b5b50919050565b60008190508160005260206000209050919050565b60006020601f8301049050919050565b600082821b905092915050565b600060088302620009e17fffffffffffffffffffffffffffffffffffffffffffffffffffffffffffffffff82620009a2565b620009ed8683620009a2565b95508019841693508086168417925050509392505050565b6000819050919050565b6000819050919050565b600062000a3a62000a3462000a2e8462000a05565b62000a0f565b62000a05565b9050919050565b6000819050919050565b62000a568362000a19565b62000a6e62000a658262000a41565b848454620009af565b825550505050565b600090565b62000a8562000a76565b62000a9281848462000a4b565b505050565b5b8181101562000aba5762000aae60008262000a7b565b60018101905062000a98565b5050565b601f82111562000b095762000ad3816200097d565b62000ade8462000992565b8101602085101562000aee578190505b62000b0662000afd8562000992565b83018262000a97565b50505b505050565b600082821c905092915050565b600062000b2e6000198460080262000b0e565b1980831691505092915050565b600062000b49838362000b1b565b9150826002028217905092915050565b62000b6482620008df565b67ffffffffffffffff81111562000b805762000b7f620008ea565b5b62000b8c825462000948565b62000b9982828562000abe565b600060209050601f83116001811462000bd1576000841562000bbc578287015190505b62000bc8858262000b3b565b86555062000c38565b601f19841662000be1866200097d565b60005b8281101562000c0b5784890151825560018201915060208501945060208101905062000be4565b8683101562000c2b578489015162000c27601f89168262000b1b565b8355505b6001600288020188555050505b505050505050565b600082825260208201905092915050565b60005b8381101562000c7157808201518184015260208101905062000c54565b60008484015250505050565b6000601f19601f8301169050919050565b600062000c9b82620008df565b62000ca7818562000c40565b935062000cb981856020860162000c51565b62000cc48162000c7d565b840191505092915050565b6000602082019050818103600083015262000ceb818462000c8e565b905092915050565b613a528062000d036000396000f3fe608060405234801561001057600080fd5b50600436106101165760003560e01c806395d89b41116100a2578063c4e41b2211610071578063c4e41b2214610303578063c575757a14610321578063c87b56dd14610351578063de9d132f14610381578063e985e9c51461038b57610116565b806395d89b411461027d578063a22cb4651461029b578063b187301f146102b7578063b88d4fde146102e757610116565b806323b872dd116100e957806323b872dd146101b55780632de38d68146101d157806342842e0e146102015780636352211e1461021d57806370a082311461024d57610116565b806301ffc9a71461011b57806306fdde031461014b578063081812fc14610169578063095ea7b314610199575b600080fd5b6101356004803603810190610130919061236f565b6103bb565b60405161014291906123b7565b60405180910390f35b61015361049d565b6040516101609190612462565b60405180910390f35b610183600480360381019061017e91906124ba565b61052f565b6040516101909190612528565b60405180910390f35b6101b360048036038101906101ae919061256f565b610575565b005b6101cf60048036038101906101ca91906125af565b61068c565b005b6101eb60048036038101906101e691906124ba565b6106ec565b6040516101f89190612462565b60405180910390f35b61021b600480360381019061021691906125af565b6107e4565b005b610237600480360381019061023291906124ba565b610804565b6040516102449190612528565b60405180910390f35b61026760048036038101906102629190612602565b61088a565b604051610274919061263e565b60405180910390f35b610285610941565b6040516102929190612462565b60405180910390f35b6102b560048036038101906102b09190612685565b6109d3565b005b6102d160048036038101906102cc91906124ba565b6109e9565b6040516102de9190612462565b60405180910390f35b61030160048036038101906102fc91906127fa565b610ae1565b005b61030b610b43565b604051610318919061263e565b60405180910390f35b61033b600480360381019061033691906124ba565b610b54565b6040516103489190612462565b60405180910390f35b61036b600480360381019061036691906124ba565b610c4c565b6040516103789190612462565b60405180910390f35b610389610d5e565b005b6103a560048036038101906103a0919061287d565b610f5d565b6040516103b291906123b7565b60405180910390f35b60007f80ac58cd000000000000000000000000000000000000000000000000000000007bffffffffffffffffffffffffffffffffffffffffffffffffffffffff1916827bffffffffffffffffffffffffffffffffffffffffffffffffffffffff1916148061048657507f5b5e139f000000000000000000000000000000000000000000000000000000007bffffffffffffffffffffffffffffffffffffffffffffffffffffffff1916827bffffffffffffffffffffffffffffffffffffffffffffffffffffffff1916145b8061049657506104958261108a565b5b9050919050565b6060600080546104ac906128ec565b80601f01602080910402602001604051908101604052809291908181526020018280546104d8906128ec565b80156105255780601f106104fa57610100808354040283529160200191610525565b820191906000526020600020905b81548152906001019060200180831161050857829003601f168201915b5050505050905090565b600061053a826110f4565b6004600083815260200190815260200160002060009054906101000a900473ffffffffffffffffffffffffffffffffffffffff169050919050565b600061058082610804565b90508073ffffffffffffffffffffffffffffffffffffffff168373ffffffffffffffffffffffffffffffffffffffff16036105f0576040517f08c379a00000000000000000000000000000000000000000000000000000000081526004016105e79061298f565b60405180910390fd5b8073ffffffffffffffffffffffffffffffffffffffff1661060f61113f565b73ffffffffffffffffffffffffffffffffffffffff16148061063e575061063d8161063861113f565b610f5d565b5b61067d576040517f08c379a000000000000000000000000000000000000000000000000000000000815260040161067490612a21565b60405180910390fd5b6106878383611147565b505050565b61069d61069761113f565b82611200565b6106dc576040517f08c379a00000000000000000000000000000000000000000000000000000000081526004016106d390612ab3565b60405180910390fd5b6106e7838383611295565b505050565b606060006107206106fc8461158e565b60405160200161070c9190612b5b565b60405160208183030381529060405261165c565b9050600980549050816107339190612bac565b90506009818154811061074957610748612bdd565b5b90600052602060002001805461075e906128ec565b80601f016020809104026020016040519081016040528092919081815260200182805461078a906128ec565b80156107d75780601f106107ac576101008083540402835291602001916107d7565b820191906000526020600020905b8154815290600101906020018083116107ba57829003601f168201915b5050505050915050919050565b6107ff83838360405180602001604052806000815250610ae1565b505050565b6000806108108361168f565b9050600073ffffffffffffffffffffffffffffffffffffffff168173ffffffffffffffffffffffffffffffffffffffff1603610881576040517f08c379a000000000000000000000000000000000000000000000000000000000815260040161087890612c58565b60405180910390fd5b80915050919050565b60008073ffffffffffffffffffffffffffffffffffffffff168273ffffffffffffffffffffffffffffffffffffffff16036108fa576040517f08c379a00000000000000000000000000000000000000000000000000000000081526004016108f190612cea565b60405180910390fd5b600360008373ffffffffffffffffffffffffffffffffffffffff1673ffffffffffffffffffffffffffffffffffffffff168152602001908152602001600020549050919050565b606060018054610950906128ec565b80601f016020809104026020016040519081016040528092919081815260200182805461097c906128ec565b80156109c95780601f1061099e576101008083540402835291602001916109c9565b820191906000526020600020905b8154815290600101906020018083116109ac57829003601f168201915b5050505050905090565b6109e56109de61113f565b83836116cc565b5050565b60606000610a1d6109f98461158e565b604051602001610a099190612d56565b60405160208183030381529060405261165c565b9050600a8054905081610a309190612bac565b9050600a8181548110610a4657610a45612bdd565b5b906000526020600020018054610a5b906128ec565b80601f0160208091040260200160405190810160405280929190818152602001828054610a87906128ec565b8015610ad45780601f10610aa957610100808354040283529160200191610ad4565b820191906000526020600020905b815481529060010190602001808311610ab757829003601f168201915b5050505050915050919050565b610af2610aec61113f565b83611200565b610b31576040517f08c379a0000000000000000000000000000000000000000000000000000000008152600401610b2890612ab3565b60405180910390fd5b610b3d84848484611838565b50505050565b6000610b4f6007611894565b905090565b60606000610b88610b648461158e565b604051602001610b749190612dc4565b60405160208183030381529060405261165c565b9050600b8054905081610b9b9190612bac565b9050600b8181548110610bb157610bb0612bdd565b5b906000526020600020018054610bc6906128ec565b80601f0160208091040260200160405190810160405280929190818152602001828054610bf2906128ec565b8015610c3f5780601f10610c1457610100808354040283529160200191610c3f565b820191906000526020600020905b815481529060010190602001808311610c2257829003601f168201915b5050505050915050919050565b6060610c57826110f4565b6000600660008481526020019081526020016000208054610c77906128ec565b80601f0160208091040260200160405190810160405280929190818152602001828054610ca3906128ec565b8015610cf05780601f10610cc557610100808354040283529160200191610cf0565b820191906000526020600020905b815481529060010190602001808311610cd357829003601f168201915b505050505090506000610d016118a2565b90506000815103610d16578192505050610d59565b600082511115610d4b578082604051602001610d33929190612de6565b60405160208183030381529060405292505050610d59565b610d54846118b9565b925050505b919050565b6103e8610d6b6007611894565b1115610d7657600080fd5b6000610d826007611894565b90506000610d8f826106ec565b90506000610d9c836109e9565b90506000610da984610b54565b90506000838383604051602001610dc293929190612e0a565b60405160208183030381529060405290506000600882604051602001610de9929190612f1f565b60405160208183030381529060405290506000610e2e83610e0984611921565b604051602001610e1a9291906130a4565b604051602081830303815290604052611921565b9050600081604051602001610e439190613135565b6040516020818303038152906040529050610e926040518060400160405280601581526020017f0a2d2d2d2d2d2d2d2d2d2d2d2d2d2d2d2d2d2d2d2d0000000000000000000000815250610ff1565b610e9b81610ff1565b610ed96040518060400160405280601581526020017f2d2d2d2d2d2d2d2d2d2d2d2d2d2d2d2d2d2d2d2d0a0000000000000000000000815250610ff1565b610ee33389611ab8565b610eed8882611ad6565b610ef76007611b43565b610f1a6040518060600160405280602581526020016139b8602591398933611b59565b7febb98688741ffa4c7589bf325de30cf7becb63de567842e1ccdb6cb949fdc82c3389604051610f4b929190613157565b60405180910390a15050505050505050565b6000600560008473ffffffffffffffffffffffffffffffffffffffff1673ffffffffffffffffffffffffffffffffffffffff16815260200190815260200160002060008373ffffffffffffffffffffffffffffffffffffffff1673ffffffffffffffffffffffffffffffffffffffff16815260200190815260200160002060009054906101000a900460ff16905092915050565b611087816040516024016110059190612462565b6040516020818303038152906040527f41304fac000000000000000000000000000000000000000000000000000000007bffffffffffffffffffffffffffffffffffffffffffffffffffffffff19166020820180517bffffffffffffffffffffffffffffffffffffffffffffffffffffffff8381831617835250505050611bf8565b50565b60007f01ffc9a7000000000000000000000000000000000000000000000000000000007bffffffffffffffffffffffffffffffffffffffffffffffffffffffff1916827bffffffffffffffffffffffffffffffffffffffffffffffffffffffff1916149050919050565b6110fd81611c21565b61113c576040517f08c379a000000000000000000000000000000000000000000000000000000000815260040161113390612c58565b60405180910390fd5b50565b600033905090565b816004600083815260200190815260200160002060006101000a81548173ffffffffffffffffffffffffffffffffffffffff021916908373ffffffffffffffffffffffffffffffffffffffff160217905550808273ffffffffffffffffffffffffffffffffffffffff166111ba83610804565b73ffffffffffffffffffffffffffffffffffffffff167f8c5be1e5ebec7d5bd14f71427d1e84f3dd0314c0f7b2291e5b200ac8c7c3b92560405160405180910390a45050565b60008061120c83610804565b90508073ffffffffffffffffffffffffffffffffffffffff168473ffffffffffffffffffffffffffffffffffffffff16148061124e575061124d8185610f5d565b5b8061128c57508373ffffffffffffffffffffffffffffffffffffffff166112748461052f565b73ffffffffffffffffffffffffffffffffffffffff16145b91505092915050565b8273ffffffffffffffffffffffffffffffffffffffff166112b582610804565b73ffffffffffffffffffffffffffffffffffffffff161461130b576040517f08c379a0000000000000000000000000000000000000000000000000000000008152600401611302906131f2565b60405180910390fd5b600073ffffffffffffffffffffffffffffffffffffffff168273ffffffffffffffffffffffffffffffffffffffff160361137a576040517f08c379a000000000000000000000000000000000000000000000000000000000815260040161137190613284565b60405180910390fd5b6113878383836001611c62565b8273ffffffffffffffffffffffffffffffffffffffff166113a782610804565b73ffffffffffffffffffffffffffffffffffffffff16146113fd576040517f08c379a00000000000000000000000000000000000000000000000000000000081526004016113f4906131f2565b60405180910390fd5b6004600082815260200190815260200160002060006101000a81549073ffffffffffffffffffffffffffffffffffffffff02191690556001600360008573ffffffffffffffffffffffffffffffffffffffff1673ffffffffffffffffffffffffffffffffffffffff168152602001908152602001600020600082825403925050819055506001600360008473ffffffffffffffffffffffffffffffffffffffff1673ffffffffffffffffffffffffffffffffffffffff16815260200190815260200160002060008282540192505081905550816002600083815260200190815260200160002060006101000a81548173ffffffffffffffffffffffffffffffffffffffff021916908373ffffffffffffffffffffffffffffffffffffffff160217905550808273ffffffffffffffffffffffffffffffffffffffff168473ffffffffffffffffffffffffffffffffffffffff167fddf252ad1be2c89b69c2b068fc378daa952ba7f163c4a11628f55a4df523b3ef60405160405180910390a46115898383836001611d88565b505050565b60606000600161159d84611d8e565b01905060008167ffffffffffffffff8111156115bc576115bb6126cf565b5b6040519080825280601f01601f1916602001820160405280156115ee5781602001600182028036833780820191505090505b509050600082602001820190505b600115611651578080600190039150507f3031323334353637383961626364656600000000000000000000000000000000600a86061a8153600a858161164557611644612b7d565b5b049450600085036115fc575b819350505050919050565b60008160405160200161166f91906132a4565b6040516020818303038152906040528051906020012060001c9050919050565b60006002600083815260200190815260200160002060009054906101000a900473ffffffffffffffffffffffffffffffffffffffff169050919050565b8173ffffffffffffffffffffffffffffffffffffffff168373ffffffffffffffffffffffffffffffffffffffff160361173a576040517f08c379a000000000000000000000000000000000000000000000000000000000815260040161173190613307565b60405180910390fd5b80600560008573ffffffffffffffffffffffffffffffffffffffff1673ffffffffffffffffffffffffffffffffffffffff16815260200190815260200160002060008473ffffffffffffffffffffffffffffffffffffffff1673ffffffffffffffffffffffffffffffffffffffff16815260200190815260200160002060006101000a81548160ff0219169083151502179055508173ffffffffffffffffffffffffffffffffffffffff168373ffffffffffffffffffffffffffffffffffffffff167f17307eab39ab6107e8899845ad3d59bd9653f200f220920489ca2b5937696c318360405161182b91906123b7565b60405180910390a3505050565b611843848484611295565b61184f84848484611ee1565b61188e576040517f08c379a000000000000000000000000000000000000000000000000000000000815260040161188590613399565b60405180910390fd5b50505050565b600081600001549050919050565b606060405180602001604052806000815250905090565b60606118c4826110f4565b60006118ce6118a2565b905060008151116118ee5760405180602001604052806000815250611919565b806118f88461158e565b604051602001611909929190612de6565b6040516020818303038152906040525b915050919050565b6060600082519050600081036119495760405180602001604052806000815250915050611ab3565b6000600360028361195a91906133e8565b611964919061341c565b6004611970919061344d565b9050600060208261198191906133e8565b67ffffffffffffffff81111561199a576119996126cf565b5b6040519080825280601f01601f1916602001820160405280156119cc5781602001600182028036833780820191505090505b50905060006040518060600160405280604081526020016139dd604091399050600181016020830160005b86811015611a705760038101905062ffffff818a015116603f8160121c168401518060081b905060ff603f83600c1c1686015116810190508060081b905060ff603f8360061c1686015116810190508060081b905060ff603f831686015116810190508060e01b905080845260048401935050506119f7565b506003860660018114611a8a5760028114611a9a57611aa5565b613d3d60f01b6002830352611aa5565b603d60f81b60018303525b508484525050819450505050505b919050565b611ad2828260405180602001604052806000815250612068565b5050565b611adf82611c21565b611b1e576040517f08c379a0000000000000000000000000000000000000000000000000000000008152600401611b1590613501565b60405180910390fd5b80600660008481526020019081526020016000209081611b3e91906136b8565b505050565b6001816000016000828254019250508190555050565b611bf3838383604051602401611b719392919061378a565b6040516020818303038152906040527f1c7ec448000000000000000000000000000000000000000000000000000000007bffffffffffffffffffffffffffffffffffffffffffffffffffffffff19166020820180517bffffffffffffffffffffffffffffffffffffffffffffffffffffffff8381831617835250505050611bf8565b505050565b60008151905060006a636f6e736f6c652e6c6f679050602083016000808483855afa5050505050565b60008073ffffffffffffffffffffffffffffffffffffffff16611c438361168f565b73ffffffffffffffffffffffffffffffffffffffff1614159050919050565b6001811115611d8257600073ffffffffffffffffffffffffffffffffffffffff168473ffffffffffffffffffffffffffffffffffffffff1614611cf65780600360008673ffffffffffffffffffffffffffffffffffffffff1673ffffffffffffffffffffffffffffffffffffffff1681526020019081526020016000206000828254611cee91906137c8565b925050819055505b600073ffffffffffffffffffffffffffffffffffffffff168373ffffffffffffffffffffffffffffffffffffffff1614611d815780600360008573ffffffffffffffffffffffffffffffffffffffff1673ffffffffffffffffffffffffffffffffffffffff1681526020019081526020016000206000828254611d7991906133e8565b925050819055505b5b50505050565b50505050565b600080600090507a184f03e93ff9f4daa797ed6e38ed64bf6a1f0100000000000000008310611dec577a184f03e93ff9f4daa797ed6e38ed64bf6a1f0100000000000000008381611de257611de1612b7d565b5b0492506040810190505b6d04ee2d6d415b85acef81000000008310611e29576d04ee2d6d415b85acef81000000008381611e1f57611e1e612b7d565b5b0492506020810190505b662386f26fc100008310611e5857662386f26fc100008381611e4e57611e4d612b7d565b5b0492506010810190505b6305f5e1008310611e81576305f5e1008381611e7757611e76612b7d565b5b0492506008810190505b6127108310611ea6576127108381611e9c57611e9b612b7d565b5b0492506004810190505b60648310611ec95760648381611ebf57611ebe612b7d565b5b0492506002810190505b600a8310611ed8576001810190505b80915050919050565b6000611f028473ffffffffffffffffffffffffffffffffffffffff166120c3565b1561205b578373ffffffffffffffffffffffffffffffffffffffff1663150b7a02611f2b61113f565b8786866040518563ffffffff1660e01b8152600401611f4d9493929190613851565b6020604051808303816000875af1925050508015611f8957506040513d601f19601f82011682018060405250810190611f8691906138b2565b60015b61200b573d8060008114611fb9576040519150601f19603f3d011682016040523d82523d6000602084013e611fbe565b606091505b506000815103612003576040517f08c379a0000000000000000000000000000000000000000000000000000000008152600401611ffa90613399565b60405180910390fd5b805181602001fd5b63150b7a0260e01b7bffffffffffffffffffffffffffffffffffffffffffffffffffffffff1916817bffffffffffffffffffffffffffffffffffffffffffffffffffffffff191614915050612060565b600190505b949350505050565b61207283836120e6565b61207f6000848484611ee1565b6120be576040517f08c379a00000000000000000000000000000000000000000000000000000000081526004016120b590613399565b60405180910390fd5b505050565b6000808273ffffffffffffffffffffffffffffffffffffffff163b119050919050565b600073ffffffffffffffffffffffffffffffffffffffff168273ffffffffffffffffffffffffffffffffffffffff1603612155576040517f08c379a000000000000000000000000000000000000000000000000000000000815260040161214c9061392b565b60405180910390fd5b61215e81611c21565b1561219e576040517f08c379a000000000000000000000000000000000000000000000000000000000815260040161219590613997565b60405180910390fd5b6121ac600083836001611c62565b6121b581611c21565b156121f5576040517f08c379a00000000000000000000000000000000000000000000000000000000081526004016121ec90613997565b60405180910390fd5b6001600360008473ffffffffffffffffffffffffffffffffffffffff1673ffffffffffffffffffffffffffffffffffffffff16815260200190815260200160002060008282540192505081905550816002600083815260200190815260200160002060006101000a81548173ffffffffffffffffffffffffffffffffffffffff021916908373ffffffffffffffffffffffffffffffffffffffff160217905550808273ffffffffffffffffffffffffffffffffffffffff16600073ffffffffffffffffffffffffffffffffffffffff167fddf252ad1be2c89b69c2b068fc378daa952ba7f163c4a11628f55a4df523b3ef60405160405180910390a46122ff600083836001611d88565b5050565b6000604051905090565b600080fd5b600080fd5b60007fffffffff0000000000000000000000000000000000000000000000000000000082169050919050565b61234c81612317565b811461235757600080fd5b50565b60008135905061236981612343565b92915050565b6000602082840312156123855761238461230d565b5b60006123938482850161235a565b91505092915050565b60008115159050919050565b6123b18161239c565b82525050565b60006020820190506123cc60008301846123a8565b92915050565b600081519050919050565b600082825260208201905092915050565b60005b8381101561240c5780820151818401526020810190506123f1565b60008484015250505050565b6000601f19601f8301169050919050565b6000612434826123d2565b61243e81856123dd565b935061244e8185602086016123ee565b61245781612418565b840191505092915050565b6000602082019050818103600083015261247c8184612429565b905092915050565b6000819050919050565b61249781612484565b81146124a257600080fd5b50565b6000813590506124b48161248e565b92915050565b6000602082840312156124d0576124cf61230d565b5b60006124de848285016124a5565b91505092915050565b600073ffffffffffffffffffffffffffffffffffffffff82169050919050565b6000612512826124e7565b9050919050565b61252281612507565b82525050565b600060208201905061253d6000830184612519565b92915050565b61254c81612507565b811461255757600080fd5b50565b60008135905061256981612543565b92915050565b600080604083850312156125865761258561230d565b5b60006125948582860161255a565b92505060206125a5858286016124a5565b9150509250929050565b6000806000606084860312156125c8576125c761230d565b5b60006125d68682870161255a565b93505060206125e78682870161255a565b92505060406125f8868287016124a5565b9150509250925092565b6000602082840312156126185761261761230d565b5b60006126268482850161255a565b91505092915050565b61263881612484565b82525050565b6000602082019050612653600083018461262f565b92915050565b6126628161239c565b811461266d57600080fd5b50565b60008135905061267f81612659565b92915050565b6000806040838503121561269c5761269b61230d565b5b60006126aa8582860161255a565b92505060206126bb85828601612670565b9150509250929050565b600080fd5b600080fd5b7f4e487b7100000000000000000000000000000000000000000000000000000000600052604160045260246000fd5b61270782612418565b810181811067ffffffffffffffff82111715612726576127256126cf565b5b80604052505050565b6000612739612303565b905061274582826126fe565b919050565b600067ffffffffffffffff821115612765576127646126cf565b5b61276e82612418565b9050602081019050919050565b82818337600083830152505050565b600061279d6127988461274a565b61272f565b9050828152602081018484840111156127b9576127b86126ca565b5b6127c484828561277b565b509392505050565b600082601f8301126127e1576127e06126c5565b5b81356127f184826020860161278a565b91505092915050565b600080600080608085870312156128145761281361230d565b5b60006128228782880161255a565b94505060206128338782880161255a565b9350506040612844878288016124a5565b925050606085013567ffffffffffffffff81111561286557612864612312565b5b612871878288016127cc565b91505092959194509250565b600080604083850312156128945761289361230d565b5b60006128a28582860161255a565b92505060206128b38582860161255a565b9150509250929050565b7f4e487b7100000000000000000000000000000000000000000000000000000000600052602260045260246000fd5b6000600282049050600182168061290457607f821691505b602082108103612917576129166128bd565b5b50919050565b7f4552433732313a20617070726f76616c20746f2063757272656e74206f776e6560008201527f7200000000000000000000000000000000000000000000000000000000000000602082015250565b60006129796021836123dd565b91506129848261291d565b604082019050919050565b600060208201905081810360008301526129a88161296c565b9050919050565b7f4552433732313a20617070726f76652063616c6c6572206973206e6f7420746f60008201527f6b656e206f776e6572206f7220617070726f76656420666f7220616c6c000000602082015250565b6000612a0b603d836123dd565b9150612a16826129af565b604082019050919050565b60006020820190508181036000830152612a3a816129fe565b9050919050565b7f4552433732313a2063616c6c6572206973206e6f7420746f6b656e206f776e6560008201527f72206f7220617070726f76656400000000000000000000000000000000000000602082015250565b6000612a9d602d836123dd565b9150612aa882612a41565b604082019050919050565b60006020820190508181036000830152612acc81612a90565b9050919050565b600081905092915050565b7f46495253545f574f524400000000000000000000000000000000000000000000600082015250565b6000612b14600a83612ad3565b9150612b1f82612ade565b600a82019050919050565b6000612b35826123d2565b612b3f8185612ad3565b9350612b4f8185602086016123ee565b80840191505092915050565b6000612b6682612b07565b9150612b728284612b2a565b915081905092915050565b7f4e487b7100000000000000000000000000000000000000000000000000000000600052601260045260246000fd5b6000612bb782612484565b9150612bc283612484565b925082612bd257612bd1612b7d565b5b828206905092915050565b7f4e487b7100000000000000000000000000000000000000000000000000000000600052603260045260246000fd5b7f4552433732313a20696e76616c696420746f6b656e2049440000000000000000600082015250565b6000612c426018836123dd565b9150612c4d82612c0c565b602082019050919050565b60006020820190508181036000830152612c7181612c35565b9050919050565b7f4552433732313a2061646472657373207a65726f206973206e6f74206120766160008201527f6c6964206f776e65720000000000000000000000000000000000000000000000602082015250565b6000612cd46029836123dd565b9150612cdf82612c78565b604082019050919050565b60006020820190508181036000830152612d0381612cc7565b9050919050565b7f5345434f4e445f574f5244000000000000000000000000000000000000000000600082015250565b6000612d40600b83612ad3565b9150612d4b82612d0a565b600b82019050919050565b6000612d6182612d33565b9150612d6d8284612b2a565b915081905092915050565b7f54484952445f574f524400000000000000000000000000000000000000000000600082015250565b6000612dae600a83612ad3565b9150612db982612d78565b600a82019050919050565b6000612dcf82612da1565b9150612ddb8284612b2a565b915081905092915050565b6000612df28285612b2a565b9150612dfe8284612b2a565b91508190509392505050565b6000612e168286612b2a565b9150612e228285612b2a565b9150612e2e8284612b2a565b9150819050949350505050565b60008190508160005260206000209050919050565b60008154612e5d816128ec565b612e678186612ad3565b94506001821660008114612e825760018114612e9757612eca565b60ff1983168652811515820286019350612eca565b612ea085612e3b565b60005b83811015612ec257815481890152600182019150602081019050612ea3565b838801955050505b50505092915050565b7f3c2f746578743e3c2f7376673e00000000000000000000000000000000000000600082015250565b6000612f09600d83612ad3565b9150612f1482612ed3565b600d82019050919050565b6000612f2b8285612e50565b9150612f378284612b2a565b9150612f4282612efc565b91508190509392505050565b7f7b226e616d65223a220000000000000000000000000000000000000000000000600082015250565b6000612f84600983612ad3565b9150612f8f82612f4e565b600982019050919050565b7f222c226465736372697074696f6e223a224120686967686c79206163636c616960008201527f6d656420636f6c6c656374696f6e206f6620776f72647320696e20737175617260208201527f65732e222c22696d616765223a2022646174613a696d6167652f7376672b786d60408201527f6c3b6261736536342c0000000000000000000000000000000000000000000000606082015250565b6000613042606983612ad3565b915061304d82612f9a565b606982019050919050565b7f227d000000000000000000000000000000000000000000000000000000000000600082015250565b600061308e600283612ad3565b915061309982613058565b600282019050919050565b60006130af82612f77565b91506130bb8285612b2a565b91506130c682613035565b91506130d28284612b2a565b91506130dd82613081565b91508190509392505050565b7f646174613a6170706c69636174696f6e2f6a736f6e3b6261736536342c000000600082015250565b600061311f601d83612ad3565b915061312a826130e9565b601d82019050919050565b600061314082613112565b915061314c8284612b2a565b915081905092915050565b600060408201905061316c6000830185612519565b613179602083018461262f565b9392505050565b7f4552433732313a207472616e736665722066726f6d20696e636f72726563742060008201527f6f776e6572000000000000000000000000000000000000000000000000000000602082015250565b60006131dc6025836123dd565b91506131e782613180565b604082019050919050565b6000602082019050818103600083015261320b816131cf565b9050919050565b7f4552433732313a207472616e7366657220746f20746865207a65726f2061646460008201527f7265737300000000000000000000000000000000000000000000000000000000602082015250565b600061326e6024836123dd565b915061327982613212565b604082019050919050565b6000602082019050818103600083015261329d81613261565b9050919050565b60006132b08284612b2a565b915081905092915050565b7f4552433732313a20617070726f766520746f2063616c6c657200000000000000600082015250565b60006132f16019836123dd565b91506132fc826132bb565b602082019050919050565b60006020820190508181036000830152613320816132e4565b9050919050565b7f4552433732313a207472616e7366657220746f206e6f6e20455243373231526560008201527f63656976657220696d706c656d656e7465720000000000000000000000000000602082015250565b60006133836032836123dd565b915061338e82613327565b604082019050919050565b600060208201905081810360008301526133b281613376565b9050919050565b7f4e487b7100000000000000000000000000000000000000000000000000000000600052601160045260246000fd5b60006133f382612484565b91506133fe83612484565b9250828201905080821115613416576134156133b9565b5b92915050565b600061342782612484565b915061343283612484565b92508261344257613441612b7d565b5b828204905092915050565b600061345882612484565b915061346383612484565b925082820261347181612484565b91508282048414831517613488576134876133b9565b5b5092915050565b7f45524337323155524953746f726167653a2055524920736574206f66206e6f6e60008201527f6578697374656e7420746f6b656e000000000000000000000000000000000000602082015250565b60006134eb602e836123dd565b91506134f68261348f565b604082019050919050565b6000602082019050818103600083015261351a816134de565b9050919050565b60006020601f8301049050919050565b600082821b905092915050565b60006008830261356e7fffffffffffffffffffffffffffffffffffffffffffffffffffffffffffffffff82613531565b6135788683613531565b95508019841693508086168417925050509392505050565b6000819050919050565b60006135b56135b06135ab84612484565b613590565b612484565b9050919050565b6000819050919050565b6135cf8361359a565b6135e36135db826135bc565b84845461353e565b825550505050565b600090565b6135f86135eb565b6136038184846135c6565b505050565b5b818110156136275761361c6000826135f0565b600181019050613609565b5050565b601f82111561366c5761363d81612e3b565b61364684613521565b81016020851015613655578190505b61366961366185613521565b830182613608565b50505b505050565b600082821c905092915050565b600061368f60001984600802613671565b1980831691505092915050565b60006136a8838361367e565b9150826002028217905092915050565b6136c1826123d2565b67ffffffffffffffff8111156136da576136d96126cf565b5b6136e482546128ec565b6136ef82828561362b565b600060209050601f8311600181146137225760008415613710578287015190505b61371a858261369c565b865550613782565b601f19841661373086612e3b565b60005b8281101561375857848901518255600182019150602085019450602081019050613733565b868310156137755784890151613771601f89168261367e565b8355505b6001600288020188555050505b505050505050565b600060608201905081810360008301526137a48186612429565b90506137b3602083018561262f565b6137c06040830184612519565b949350505050565b60006137d382612484565b91506137de83612484565b92508282039050818111156137f6576137f56133b9565b5b92915050565b600081519050919050565b600082825260208201905092915050565b6000613823826137fc565b61382d8185613807565b935061383d8185602086016123ee565b61384681612418565b840191505092915050565b60006080820190506138666000830187612519565b6138736020830186612519565b613880604083018561262f565b81810360608301526138928184613818565b905095945050505050565b6000815190506138ac81612343565b92915050565b6000602082840312156138c8576138c761230d565b5b60006138d68482850161389d565b91505092915050565b7f4552433732313a206d696e7420746f20746865207a65726f2061646472657373600082015250565b60006139156020836123dd565b9150613920826138df565b602082019050919050565b6000602082019050818103600083015261394481613908565b9050919050565b7f4552433732313a20746f6b656e20616c7265616479206d696e74656400000000600082015250565b6000613981601c836123dd565b915061398c8261394b565b602082019050919050565b600060208201905081810360008301526139b081613974565b905091905056fe416e204e465420772f20494420257320686173206265656e206d696e74656420746f2025734142434445464748494a4b4c4d4e4f505152535455565758595a6162636465666768696a6b6c6d6e6f707172737475767778797a303132333435363738392b2fa2646970667358221220117ea97efd5a41bc2f4021ec7aba8dcb8ee67f7865ab49cf039df52be1269e4f64736f6c634300081100333c73766720786d6c6e733d27687474703a2f2f7777772e77332e6f72672f323030302f73766727207072657365727665417370656374526174696f3d27784d696e594d696e206d656574272076696577426f783d273020302033353020333530273e3c7374796c653e2e62617365207b2066696c6c3a2077686974653b20666f6e742d66616d696c793a2073657269663b20666f6e742d73697a653a20323470783b207d3c2f7374796c653e3c726563742077696474683d273130302527206865696768743d2731303025272066696c6c3d27626c61636b27202f3e3c7465787420783d273530252720793d273530252720636c6173733d27626173652720646f6d696e616e742d626173656c696e653d276d6964646c652720746578742d616e63686f723d276d6964646c65273e",
    "linkReferences": {},
    "deployedLinkReferences": {}
}